:0200000460009A
:100000004643464200000156000000000103030081
:1000100000000000000000000000000000000000E0
:1000200000000000000000000000000000000000D0
:1000300000000000000000000000000000000000C0
:1000400000000000010408000000000000000000A3
:100050000000200000000000000000000000000080
:100060000000000000000000000000000000000090
:100070000000000000000000000000000000000080
:10008000EB04180A063204260000000000000000FD
:10009000050404240000000000000000000000002F
:1000A0000000000000000000000000000000000050
:1000B0000604000000000000000000000000000036
:1000C0000000000000000000000000000000000030
:1000D00020041808000000000000000000000000DC
:1000E0000000000000000000000000000000000010
:1000F0000000000000000000000000000000000000
:10010000D8041808000000000000000000000000F3
:100110000204180804200000000000000000000095
:1001200000000000000000000000000000000000CF
:10013000600400000000000000000000000000005B
:1001400000000000000000000000000000000000AF
:10015000000000000000000000000000000000009F
:10016000000000000000000000000000000000008F
:10017000000000000000000000000000000000007F
:10018000000000000000000000000000000000006F
:10019000000000000000000000000000000000005F
:1001A000000000000000000000000000000000004F
:1001B000000000000000000000000000000000003F
:1001C000000100000010000001000000000000001D
:1001D000000001000000000000000000000000001E
:1001E000000000000000000000000000000000000F
:1001F00000000000000000000000000000000000FF
:10020000FFFFFFFFFFFFFFFFFFFFFFFFFFFFFFFFFE
:10021000FFFFFFFFFFFFFFFFFFFFFFFFFFFFFFFFEE
:10100000D1002043491600600000000000000000ED
:10101000201000600010006000600160000000000F
:1010200000000060006C010000000000FFFFFFFFF7
:10103000FFFFFFFFFFFFFFFFFFFFFFFFFFFFFFFFC0
:10104000FFFFFFFFFFFFFFFFFFFFFFFFFFFFFFFFB0
:10105000FFFFFFFFFFFFFFFFFFFFFFFFFFFFFFFFA0
:10106000FFFFFFFFFFFFFFFFFFFFFFFFFFFFFFFF90
:10140000814205D051F8043B40F8043B8242F9D8B0
:10141000704700BF044A05494FF0000342F8043BFF
:101420009142FBD8704700BFC0260020A0380020A2
:101430002DE98848BFF34F8F00BF00BF00BF00BF3A
:1014400000F0D4F9674B0822C3F8542100BF00BF55
:1014500000BF00BF00BF00BF00BF00BF00BF00BF94
:1014600000BF00BF00BF00BF00BF00BF5E4A5F49B2
:101470005F48FFF7C5FF5F4A5F496048FFF7C0FF5D
:101480005F4CFFF7C7FF4FF470004FF0E0210023DF
:101490005C4AC1F8880D44F823200133B02BFAD1FF
:1014A000594B8021594A03F8011B9342FBD14FF05D
:1014B000E0254C4E4FF08039DFF880B1DFF880A195
:1014C0004FF0FF31C5F8084D0027C6F80491C6F863
:1014D00000B1C6F8F490C6F8F0A0D5F8243DDFF8C6
:1014E000648143F4E0234A4AC5F8243DD8F81C300F
:1014F00023F07F0343F04003C8F81C30D8F82430B1
:1015000023F07F0343F04003C8F824309166D1668E
:101510001167516700F072F93E4B3F49A3633F4B9F
:10152000E36363236B610323AF612B613C4BC5F81D
:10153000203DD5F8FC3D43F08073C5F8FC3D394BA8
:101540001A6842F001021A605B680B6000F0DEF975
:10155000C6F804913448C6F800B1C6F8F490C6F84D
:10156000F0A000F06DFBD8F86C10304B304A41F41D
:101570004051C8F86C101F60C3F80871C3F81871A7
:10158000C3F82871C3F83871936BDB0708D442F6AF
:101590001563284951651365936B43F00103936309
:1015A000234A254C936843F00113936000F012FB2B
:1015B00000F04EFB00F0D8F900F01AF92368132B65
:1015C000FCD900F069FA2368B3F5967FFBD300F0ED
:1015D00013F900F00FF900F043FB00F03DFB30BFC2
:1015E000FDE700BF00800D40C8170100781E0060B5
:1015F00000000000C02600204436016000000020EA
:1016000000240020E967000000E400E0A0E400E01E
:1016100000C00A40057C000040380020097C000022
:1016200000002020001000E00046C32300400840D6
:1016300000400D400000C056443800201B10182008
:101640000C0D111300C00F40054B4FF42A01054A41
:1016500005485A641864054A99639546FFF7E8FE01
:1016600000C00A40BFAAAAAA0700200000800620E6
:1016700043690A4A03EB011010B4037A084C02EBE9
:101680000313D3E901321460C2681A6003690BB115
:1016900042691A605DF8044B704700BF780F002064
:1016A00061F801004369027E03EB021292F808C060
:1016B0008C451CD01A7AFF2A19D0914210B50446E5
:1016C00016D01A7EFF2A06D00121D3E90023126822
:1016D0001A4201D1217610BD064B0522204603EBAC
:1016E0000C135B681A60FFF7C3FF2176F3E77047BE
:1016F0000021EAE7780F002043690A4A03EB011052
:1017000010B490F82830084C02EB0313D3E90132EF
:101710001460C26A1A60036B0BB1426B1A605DF809
:10172000044B7047780F002061F801004369427E46
:1017300003EB021292F828C08C451ED093F82820A3
:10174000FF2A1AD0914210B5044617D093F83820DA
:10175000FF2A06D00121D3E9002312681A4201D1E1
:10176000617610BD064B0522204603EB0C135B6827
:101770001A60FFF7C1FF6176F3E770470021EAE7DF
:10178000780F0020164942698B6B23F47C0343F4E5
:10179000802370B58B630446124DD2E900130A68AA
:1017A0001A4303690A60022200211A610E4A196174
:1017B0009A6401225A629D624FF43035DD624FF027
:1017C00001159E6C1E6519629D651A61017EFFF709
:1017D0004FFF617E2046BDE87040FFF78DBF00BF20
:1017E00000C00F40B80B05053B372819704700BFF4
:1017F000704700BF704700BF00BF704710B44FF084
:10180000E023002110243148C3F8941DC3F89C4DF7
:101810001124C3F8A00D2E48C3F89C4D1224C3F820
:10182000A00D2C48C3F89C4D2B4AC3F8A00D2B4C9F
:1018300042F015022A48C3F89C4DC3F8A00D294C6C
:101840002948C3F89C4DC3F8A00D284CC3F89C2D23
:101850002748284AC3F8A04DC3F89C0DC3F8A02D13
:1018600002F5A022244C0C322448C3F89C4DC3F846
:10187000A02D234AC3F89C0D224CC3F8A02D02F1E1
:101880004062C3F89C4D2048C3F8A02D0C32C3F829
:101890009C0DC3F8A02D00BF00BF00BF00BF00BF5C
:1018A0000122C3F8942DBFF34F8FBFF36F8FC3F89E
:1018B000501FBFF34F8FBFF36F8FD3F8142D5DF818
:1018C000044B42F44032C3F8142D70473F0000101F
:1018D0002500080709001000A03800201300200090
:1018E0002100020714000020250008130900001041
:1018F0001600202027000B1317000040180000607E
:101900002F000B07190000701A000080F0B4154A70
:1019100040274FF480314FF480564FF400554FF478
:10192000404443F24200136913F0020F0ED113F446
:10193000005F0FD013F4805F0ED0002BF3DA13F4A6
:10194000803F0BD15B060BD5F0BC704794615161B1
:101950009061E8E75561E6E75661E4E79161E2E707
:101960005761E0E700800D403F4A03203F49F3EE16
:10197000095AD2F880304FF0000C9FED3D6A23F0F9
:1019800001039FED3C5A30B4C2F88030C2F8900099
:10199000D1F8E010384DCBB2384C39482B6007EE07
:1019A000903A0B0DC1F30B21F8EEE77A06EE903A70
:1019B00007EE101A334BB8EEC77A2160F8EEE66AEC
:1019C000314937EEC66A37EEC55A76EEC76A77EE0A
:1019D000E57A26EE266AC3ED006A25EE265AD2F88D
:1019E000803067EEA64AC0ED007AC6EE275A274837
:1019F00085EE276AC4EEA76A75EE875AFCEEE55AB3
:101A000036EE076A15EE904ABCEEC66A43EA045306
:101A100076EE877AC2F8803016EE103AD2F890410E
:101A2000FCEEE77A01EA0341214317EE903AC2F84F
:101A30009011C3F30B03D2F890110B431449C2F871
:101A40009031D2F8803043F00203C2F88030114B5D
:101A500080F840C0C1F840314FF0E023012230BC93
:101A6000C3F80821704700BF00810D4000441F40AB
:101A70000000AA420000B442283800202438002088
:101A80002C380020303800200000FF0F00E400E078
:101A900000240020D1690000314B40F6617210B57E
:101AA000C3F8202140F2044400F0CEF82D4A2E491C
:101AB000D2F880302D4843F00303C2F880302C4B1D
:101AC000C1F8604102681A4203D1D1F8A8319A07DF
:101AD0001BD0254A4FF00041244B5963D2F84031C6
:101AE00043F00203C2F84031D2F840319B07FBD4E7
:101AF0004FF400304FF0E0211C4B4FF00042C1F892
:101B00008C0219209A6300F0AFF8184A4FF0804019
:101B1000154C002190630A20164B11604FF420727F
:101B2000C4F8A801184600F087F84FF48002034675
:101B30004FF4810040F243111860C4F858311A6420
:101B40000D4B0E4AC4F84811C3F804224FF0E022AE
:101B50004FF400310123C2F80C11C4F8403110BD1C
:101B600000800D4000C00F4000002E4000900D404E
:101B7000001C1E000000002000240020B96B0000A3
:101B800008B50E4B1B6E9B0700D4FBBE72B60C4B08
:101B900000200C4AC3F8400103F160430A49A3F551
:101BA0005F2311649D46BFF34F8F4FF40013074826
:101BB000074ADB6902609B68984700BF00441F40EA
:101BC00000002E4000C00A400300200000802020BA
:101BD000000012EB104BA020104AD96E41F44031A6
:101BE00010B4D96640F23764D96E41F44071D966B9
:101BF00054649064936C1B06FCD4094A40F237612C
:101C0000A02351649364936C13F08003FBD1054AC5
:101C100013705DF8044B704700C00F4000400C404B
:101C200000800C406A380020F8B500BFF8BC08BC42
:101C30009E467047000000005FF800F0A198000089
:101C40005FF800F0ED5D00005FF800F02973000020
:101C50005FF800F0F56600005FF800F051630000E7
:101C60005FF800F02DA500005FF800F0DD600000D7
:101C7000490100004148000049590000815D000011
:101C800080C00F4000000003190000001000000099
:101C9000E8841F4001000000FF000000FF0000007A
:101CA000000000000000000018000000100000000C
:101CB000E4841F4001000000FF000000FF0000005E
:101CC00000000000000000001F000000895000001C
:101CD00070C00F40000C0000110000001100000057
:101CE000E0841F40020000002400000012000000F9
:101CF000E0841F40010000001000000011000000FF
:101D0000DC841F40020000002500000012000000DB
:101D1000DC841F40010000001E0000007D50000018
:101D200070C00F40C000000012000000130000004F
:101D3000D0841F4001000000FF000000FF000000F1
:101D4000000000000000000013000000130000006D
:101D5000CC841F4001000000FF000000FF000000D5
:101D600000000000000000001C0000007150000096
:101D70001603550053004200200053006500720016
:101D8000690061006C0000001803540065006500E4
:101D90006E00730079006400750069006E006F00CA
:101DA0000403090409026200030100C032080B00A9
:101DB00002020201000904000001020201000524E0
:101DC0000010010524010101042402060524060077
:101DD000010705820310001009040100020A000037
:101DE00000070503024000000705840240000009C7
:101DF00004020002FF6AFF0007058102400001079C
:101E0000050102400001000009026200030100C058
:101E100032080B0002020201000904000001020264
:101E2000010005240010010524010101042402061B
:101E300005240600010705820310000509040100BE
:101E4000020A0000000705030200020007058402E1
:101E50000002000904020002FF6AC70007058102B0
:101E60000002010705010200020100000A0600024B
:081E7000EF0201400100000037
:101E7800000000000000000000000000000000005A
:101E8800000000000000000000000000000000004A
:101E9800F8B54FF084439D695A6915400DD0254F18
:101EA80001269D6195FAA5F4B4FA84F457F8243014
:101EB80006FA04F49847A543F4D11F4B9D695A6963
:101EC80015400DD01D4F01269D6195FAA5F4B4FA71
:101ED80084F457F8243006FA04F49847A543F4D15B
:101EE800174B9D695A6915400DD0164F01269D6103
:101EF80095FAA5F4B4FA84F457F8243006FA04F4F1
:101F08009847A543F4D1104B9D695A6915400DD0E7
:101F18000E4F01269D6195FAA5F4B4FA84F457F89A
:101F2800243006FA04F49847A543F4D1BFF34F8F41
:101F3800F8BD00BFD0200020004000425021002002
:101F480000800042D021002000C000425022002022
:101F58000348044B834202D0034B03B11847704730
:101F6800C0260020C0260020000000000548064BBF
:101F78001B1AD90F01EBA301491002D0034B03B17F
:101F880018477047C0260020C02600200000000027
:101F980010B5064C237843B9FFF7DAFF044B13B1A9
:101FA8000448AFF300800123237010BDA829002046
:101FB80000000000006C016008B5044B1BB1044927
:101FC8000448AFF30080BDE80840CFE700000000F8
:101FD800AC290020006C0160034608205A680A708A
:101FE8005A68C2404A70DA888A70DA79CA709A6880
:101FF8000A719A68C2404A715A898A71DB7ACB7130
:10200800704700BF0A7803464260487842EA0022D7
:102018005A60887842EA00425A60C87842EA006208
:102028005A600A799A60487942EA00229A60887967
:1020380042EA004208209A60C97942EA01629A603D
:10204800704700BF004870474C0D0020004870479B
:10205800280D002000487047A40C00200048704755
:10206800800C0020004870476C0C00200048704726
:10207800480C002000487047C00C002000487047FA
:10208800240C002043680B704FEA132C1A0C1B0E0B
:1020980081F801C08A70CB7083684FEA132C0B71EA
:1020A8001A0C1B0E81F805C08A71CB71C3680C200D
:1020B8004FEA132C0B721A0C1B0E81F809C08A7296
:1020C800CB72704703460A680C205A604A689A60C7
:1020D8008A68DA60704700BF00487047800D0020AA
:1020E800004870475C0D0020004870470C0C002029
:1020F80000487047E80B002000487047D40B0020C8
:1021080000487047B00B002043680B704FEA132C4F
:102118001A0C1B0E81F801C08A70CB7083684FEAD5
:10212800132C0B711A0C1B0E81F805C08A71CB7128
:10213800C3680C204FEA132C0B721A0C1B0E81F883
:1021480009C08A72CB72704703460A680C205A602D
:102158004A689A608A68DA60704700BF004870472A
:10216800F00D002000487047CC0D00200048704753
:10217800BC0D002000487047980D002010B4D0F81E
:1021880008C0094C094BC4F800C0094AD0F80CC073
:102198000849C3F800C01268006A074B5DF8044B91
:1021A80008601A60704700BF043100200831002021
:1021B8004438002000310020FC30002090F8F8045A
:1021C800704700BF006A704700487047F00D002054
:1021D80000487047CC0D0020406B7047004870479E
:1021E800D40B002000487047B00B002007F010BB4C
:1021F80043682DE9F0470B70044643680E461B0AF6
:102208004B70C3888B70C379CB704368002B00F088
:1022180086800B46C6F1080E0021E2680EEB03002B
:10222800043352F8212001314FEA122C1A70170C8E
:10223800150E83F801C09F70DD7062688A42ECD881
:1022480000F1040C00F1010A00F1020900F1030891
:1022580000F1050E851D6346C11D00F108072269BE
:1022680032542269120A06F80A20628A06F80920FE
:10227800E27C06F80820226902B333440021C6F143
:10228800040EA2690EEB030C043352F8212001312D
:10229800170A03F8042C150C100E03F8037C03F836
:1022A800025C03F8010C22698A42EAD80CF1010E9B
:1022B8000CF102050CF103010CF10407E36906F8BF
:1022C8000C30E3691B0A06F80E30E38B7355E37F85
:1022D8007354E36903B34FF00008636A4FEA88094F
:1022E80053F828000AF064FAF2190023054625FA83
:1022F80003F00833202B02F8010BF8D1636A043786
:102308002A4608F1010853F80910F01905F060FF92
:10231800E3692F444345E0D83846BDE8F0870823F1
:102328000C270B210A254FF0090E4FF007089C4691
:102338004FF006094FF0050A042090E770B50379BD
:1023480006460D460B7080680AF032FA0446030C04
:102358006870020AEB70030EAA7002462B71681DA2
:10236800B16805F035FF601D70BD00BFF8B5838802
:1023780006460C460B7083881B0A4B7080680AF06F
:1023880017FAA070030C0546020A2371030EE270C7
:1023980002466371A01DB16805F01AFFF0680AF0E3
:1023A80007FA691D02460023214422FA03F0083384
:1023B800202B01F8010FF8D10A35F168AF18601920
:1023C80005F006FF30690AF0F3F9E2190546002323
:1023D80025FA03F10833202B02F8011BF8D1043742
:1023E8002A463169E01905F0F3FE73697819190C6A
:1023F800235422181D0A04301B0E91705570D37097
:10240800F8BD00BF0846114607F028BA10B50446C3
:10241800124894ED021AD4ED030A94ED010A05F06E
:10242800CBFA94ED021AD4ED030A94ED010A0C4894
:1024380005F0C2FA94ED021AD4ED030A94ED010AEC
:10244800084805F0B9FA94ED021AD4ED030A94EDA0
:10245800010A0548BDE8104005F0AEBAE82800209A
:102468001829002048290020782900202DE9F04F5C
:10247800436883B00E6804460D46B342C0F0B2808C
:102488006660002E00F0B7802A460020C5F1080CCF
:1024980093790CEB020792F8058004321B0492F83A
:1024A80000E0D67843EA0823E16843EA0E0343EAEA
:1024B8000663A36041F82030013063688342E7D89F
:1024C8003E1D781CBB1CF91C07F1050A07F1060B19
:1024D800324607F1070807F10809EB5C15F800C058
:1024E800E85D1F04695C47EA0C272369074347EA4C
:1024F8000167BB42C0F09480276127B32A440020BB
:10250800C5F1040C93780CEB020692F801800432B2
:102518001B0412F804EC12F8017C43EA0823A169B1
:1025280043EA0E0343EA0763636141F82030013050
:1025380023698342E6D806F1010A06F1020B06F187
:10254800030806F1040915F80B30A95D15F80A000F
:102558001E0415F8082046EA0026E3690E4346EAF9
:102568000266B34256D3E661AEB34FF000086FF08F
:1025780003074646002305EB0901184611F8012B0D
:102588009A400833202B40EA0200F7D109F10401F0
:1025980001EB000A514522D2A7EB090209F1050314
:1025A80009F103092944524405EB0900534588BF42
:1025B800012209F031F805EB0A0205EB0903D146BF
:1025C80002F8016C626A236242F8283008F10108B7
:1025D800E3694345CED8484603B0BDE8F08F09F11A
:1025E8000309E8E7B100C06808F04AFB6660E060EC
:1025F800002E7FF449AF08224FF00C094FF00B086A
:102608004FF00A0B4FF0090A07211646062305204A
:10261800042762E7B100606A08F032FB6062A2E753
:10262800B900A069019208F02BFB019AA06163E749
:10263800F8B500230A780D46064602711C460A467C
:1026480012F801CF0CFA03FC0833202B44EA0C04DF
:10265800F6D1671D2B1D052F05D918462246691D81
:1026680008F0DAFF03462544002238462A71B36091
:10267800F8BD00BFD1F800C00346C2690C30C3F8EA
:1026880010C0D1F804C0C3F814C089689961104714
:10269800F8B50B780D4607464C1D83804A7843EA07
:1026A800022383800E79CB78360446EA03264B79D9
:1026B80046EA03668B781E43B31D062B04D93246BF
:1026C8000631204608F0A8FF711D00236B542944E9
:1026D800BC601C4611F8012F9A400833202B44EAAD
:1026E8000204F7D106F10A010C44A14237D2A21B19
:1026F800093629440A3AA81908F08EFF0023291937
:102708002E44184601F8013CFE6011F8012B9A404E
:102718000833202B40EA0200F7D1211D0E18B142E0
:102728001FD2321B631D03342944043A28199E42E0
:1027380038BF012208F070FFAA192C440023301D6D
:1027480002F8013C3C61937854781B04A95DD27867
:1027580043EA04230B4343EA02637B61F8BD09366D
:10276800CCE70334E8E700BFD0ED017A17EE903AE2
:10277800C3F3C75200B5002A00F0888002F56072E2
:102788004FEA021CC2F307124FFA8CFCC3F3C34E84
:10279800F5EEC07A4CEA0E0CF1EE10FA81F806C09C
:1027A8004FF0000C81F800C048BF62F07F0281F84A
:1027B80001C081F802C04FEA431CCA7181F803C006
:1027C8004FEAE30CDB1281F804C04B71D0ED027ABA
:1027D80017EE903AC3F3C752002A5BD002F5607235
:1027E8004FEA021CC2F307124FFA8CFCC3F3C34E24
:1027F800F5EEC07A4CEA0E0CF1EE10FA81F80EC034
:102808004FF0000C81F808C048BF62F07F0281F8E1
:1028180009C081F80AC04FEA431CCA7381F80BC08B
:102828004FEAE30CDB1281F80CC04B73D0ED037A4E
:1028380017EE903AC3F3C75252B302F56072100113
:10284800C2F3071240B24FF0000CF5EEC07A81F8DF
:1028580010C081F811C0F1EE10FA81F812C04FEAE9
:10286800431C81F813C04FEAE30C48BF62F07F02B3
:1028780081F814C04FEAE32CC3F3C343CA7581F847
:1028880015C0034318208B755DF804FB94467DE75B
:102898001046D8E79446A9E700B5CA780346520916
:1028A8004260087942EAC0025A60487942EAC02286
:1028B8005A608879C00400F4F00002435A60C8796D
:1028C80091F806E04FEA001C0CF4FE6C5CEA1E1C52
:1028D80005D0ACF5607C42EACC525A60C879000653
:1028E80000F0004010435860CA7A52099A60087B89
:1028F80042EAC0029A60487B42EAC0229A60887B1A
:10290800C00400F4F00002439A60C87B91F80EE01E
:102918004FEA001C0CF4FE6C5CEA1E1C05D0ACF5FA
:10292800607C42EACC529A60C87B000600F0004006
:1029380010439860CA7C5209DA60087D42EAC002F6
:10294800DA60487D42EAC022DA60887DC00400F47B
:10295800F0000243DA60C87D91F816E04FEA001CE7
:102968000CF4FE6C5CEA1E1C05D0ACF5607C42EAF7
:10297800CC52DA60C87D0106182001F000410A43F4
:10298800DA605DF804FB00BF70B5054604300E46FA
:10299800FFF782FF044605F114003119FFF77CFFA9
:1029A800204470BD70B5054604300E46FFF774FF2D
:1029B800044605F114003119FFF76EFF034605F1CF
:1029C80024001C443119FFF767FF204470BD00BF85
:1029D80070B5044610300D46FFF75EFF014604F15E
:1029E8000C0604F120002944FFF756FF236B3046FC
:1029F800BDE87040184700BFD0ED027A17EE903A54
:102A0800C3F3C75200B5002A00F01F8102F56072B7
:102A18004FEA021CC2F307124FFA8CFCC3F3C34EF1
:102A2800F5EEC07A4CEA0E0CF1EE10FA81F806C009
:102A38004FF0000C81F800C048BF62F07F0281F8B7
:102A480001C081F802C04FEA431CCA7181F803C073
:102A58004FEAE30CDB1281F804C04B71D0ED037A26
:102A680017EE903AC3F3C752002A00F0F88002F537
:102A780060724FEA021CC2F307124FFA8CFCC3F3D0
:102A8800C34EF5EEC07A4CEA0E0CF1EE10FA81F85E
:102A98000EC04FF0000C81F808C048BF62F07F02FA
:102AA80081F809C081F80AC04FEA431CCA7381F84B
:102AB8000BC04FEAE30CDB1281F80CC04B73D0ED6E
:102AC800047A17EE903AC3F3C752002A00F0C58083
:102AD80002F560724FEA021CC2F307124FFA8CFC2F
:102AE800C3F3C34EF5EEC07A4CEA0E0CF1EE10FAC1
:102AF80081F816C04FF0000C81F810C048BF62F092
:102B08007F0281F811C081F812C04FEA431CCA75D0
:102B180081F813C04FEAE30CDB1281F814C04B753F
:102B2800D0ED067A17EE903AC3F3C752002A00F0A8
:102B3800928002F560724FEA021CC2F307124FFA44
:102B48008CFCC3F3C34EF5EEC07A4CEA0E0CF1EEE2
:102B580010FA81F81EC04FF0000C81F818C048BF69
:102B680062F07F0281F819C081F81AC04FEA431C4D
:102B7800CA7781F81BC04FEAE30CDB1281F81CC04E
:102B88004B77D0ED077A17EE903AC3F3C752002A75
:102B98005FD002F560724FEA021CC2F307124FFAC7
:102BA8008CFCC3F3C34EF5EEC07A4CEA0E0CF1EE82
:102BB80010FA81F826C04FF0000C81F820C048BFF9
:102BC80062F07F0281F821C081F822C04FEA431CDD
:102BD80081F8272081F823C04FEAE30CDB1281F843
:102BE80024C081F82530D0ED087A17EE903AC3F367
:102BF800C75262B302F560721001C2F3071240B205
:102C08004FF0000CF5EEC07A81F828C081F829C091
:102C1800F1EE10FA81F82AC04FEA431C81F82BC064
:102C28004FEAE30C48BF62F07F0281F82CC04FEAFC
:102C3800E32CC3F3C34381F82F2081F82DC003434D
:102C4800302081F82E305DF804FB9446E6E6104605
:102C5800D6E79446A5E7944673E7944640E794463A
:102C68000DE700BFD0ED027A17EE903AC3F3C752D2
:102C780000B5002A00F0B88102F560724FEA021C24
:102C8800C2F307124FFA8CFCC3F3C34EF5EEC07AB9
:102C98004CEA0E0CF1EE10FA81F806C04FF0000C69
:102CA80081F800C048BF62F07F0281F801C081F856
:102CB80002C04FEA431CCA7181F803C04FEAE30C13
:102CC800DB1281F804C04B71D0ED037A17EE903A0D
:102CD800C3F3C752002A00F0978102F560724FEAE9
:102CE800021CC2F307124FFA8CFCC3F3C34EF5EE75
:102CF800C07A4CEA0E0CF1EE10FA81F80EC04FF0D3
:102D0800000C81F808C048BF62F07F0281F809C052
:102D180081F80AC04FEA431CCA7381F80BC04FEA16
:102D2800E30CDB1281F80CC04B73D0ED047A17EE7C
:102D3800903AC3F3C752002A00F0648102F560722A
:102D48004FEA021CC2F307124FFA8CFCC3F3C34EBE
:102D5800F5EEC07A4CEA0E0CF1EE10FA81F816C0C6
:102D68004FF0000C81F810C048BF62F07F0281F874
:102D780011C081F812C04FEA431CCA7581F813C00C
:102D88004FEAE30CDB1281F814C04B75D0ED067ADC
:102D980017EE903AC3F3C752002A00F0318102F5CA
:102DA80060724FEA021CC2F307124FFA8CFCC3F39D
:102DB800C34EF5EEC07A4CEA0E0CF1EE10FA81F82B
:102DC8001EC04FF0000C81F818C048BF62F07F02A7
:102DD80081F819C081F81AC04FEA431CCA7781F8F4
:102DE8001BC04FEAE30CDB1281F81CC04B77D0ED17
:102DF800077A17EE903AC3F3C752002A00F0FE8014
:102E080002F560724FEA021CC2F307124FFA8CFCFB
:102E1800C3F3C34EF5EEC07A4CEA0E0CF1EE10FA8D
:102E280081F826C04FF0000C81F820C048BF62F03E
:102E38007F0281F821C081F822C04FEA431C81F843
:102E4800272081F823C04FEAE30CDB1281F824C065
:102E580081F82530D0ED087A17EE903AC3F3C752BF
:102E6800002A00F0C98002F560724FEA021CC2F322
:102E780007124FFA8CFCC3F3C34EF5EEC07A4CEA46
:102E88000E0CF1EE10FA81F82EC04FF0000C81F80C
:102E980028C048BF62F07F0281F829C081F82AC0A3
:102EA8004FEA431C81F82F2081F82BC04FEAE30C2E
:102EB800DB1281F82CC081F82D30D0ED0A7A17EE9C
:102EC800903AC3F3C752002A00F0948002F560726A
:102ED8004FEA021CC2F307124FFA8CFCC3F3C34E2D
:102EE800F5EEC07A4CEA0E0CF1EE10FA81F836C015
:102EF8004FF0000C81F830C048BF62F07F0281F8C3
:102F080031C081F832C04FEA431C81F8372081F87C
:102F180033C04FEAE30CDB1281F834C081F8353056
:102F2800D0ED0B7A17EE903AC3F3C752002A5FD060
:102F380002F560724FEA021CC2F307124FFA8CFCCA
:102F4800C3F3C34EF5EEC07A4CEA0E0CF1EE10FA5C
:102F580081F83EC04FF0000C81F838C048BF62F0DD
:102F68007F0281F839C081F83AC04FEA431C81F8E2
:102F78003F2081F83BC04FEAE30CDB1281F83CC0EC
:102F880081F83D30D0ED0C7A17EE903AC3F3C75272
:102F980062B302F560721001C2F3071240B24FF03B
:102FA800000CF5EEC07A81F840C081F841C0F1EE1E
:102FB80010FA81F842C04FEA431C81F843C04FEA37
:102FC800E30C48BF62F07F0281F844C04FEAE32C6B
:102FD800C3F3C34381F8472081F845C00343482021
:102FE80081F846305DF804FB94464DE61046D6E776
:102FF8009446A5E7944671E794463CE7944607E76C
:103008009446D4E69446A1E694466EE6214B1A68A7
:10301800D2E90010D3680968006810B418429468AF
:1030280001EA04012ED0137C03F00303D9B943F05D
:1030380008039908013B11740D2B0BD8DFE803F046
:103048000D071C070A160D0D160A071C070D5369F4
:10305800013B53615DF8044B704753695DF8044BBD
:1030680001335361704743F00403E0E753695DF8A7
:10307800044B023B5361704753695DF8044B0233BC
:1030880053617047137C03F003030029D1D043F048
:103098000403CEE7F42F0020224BD3F89C20D2E97A
:1030A8000010D3680968006810B41842946801EAEF
:1030B80004012ED0137C03F00303D9B943F00803AD
:1030C8009908013B11740D2B0BD8DFE803F00D07AD
:1030D8001C070A160D0D160A071C070D5369013B3C
:1030E80053615DF8044B704753695DF8044B013335
:1030F8005361704743F00403E0E753695DF8044BFC
:10310800023B5361704753695DF8044B02335361C6
:103118007047137C03F003030029D1D043F0040364
:10312800CEE700BFF42F0020224BD3F89420D2E939
:103138000010D3680968006810B41842946801EA5E
:1031480004012ED0137C03F00303D9B943F008031C
:103158009908013B11740D2B0BD8DFE803F00D071C
:103168001C070A160D0D160A071C070D5369013BAB
:1031780053615DF8044B704753695DF8044B0133A4
:103188005361704743F00403E0E753695DF8044B6B
:10319800023B5361704753695DF8044B0233536136
:1031A8007047137C03F003030029D1D043F00403D4
:1031B800CEE700BFF42F0020224BD3F89820D2E9A5
:1031C8000010D3680968006810B41842946801EACE
:1031D80004012ED0137C03F00303D9B943F008038C
:1031E8009908013B11740D2B0BD8DFE803F00D078C
:1031F8001C070A160D0D160A071C070D5369013B1B
:1032080053615DF8044B704753695DF8044B013313
:103218005361704743F00403E0E753695DF8044BDA
:10322800023B5361704753695DF8044B02335361A5
:103238007047137C03F003030029D1D043F0040343
:10324800CEE700BFF42F0020214B5A68D2E90010C6
:10325800D3680968006810B41842946801EA040148
:103268002ED0137C03F00303D9B943F0080399085F
:10327800013B11740D2B0BD8DFE803F00D071C0779
:103288000A160D0D160A071C070D5369013B5361F9
:103298005DF8044B704753695DF8044B0133536183
:1032A800704743F00403E0E753695DF8044B023BC1
:1032B8005361704753695DF8044B0233536170479B
:1032C800137C03F003030029D1D043F00403CEE7B5
:1032D800F42F0020214B9A68D2E90010D3680968BE
:1032E800006810B41842946801EA04012ED0137CD7
:1032F80003F00303D9B943F008039908013B11749B
:103308000D2B0BD8DFE803F00D071C070A160D0D6F
:10331800160A071C070D5369013B53615DF8044BFE
:10332800704753695DF8044B01335361704743F0AC
:103338000403E0E753695DF8044B023B53617047AF
:1033480053695DF8044B023353617047137C03F0F3
:1033580003030029D1D043F00403CEE7F42F002063
:10336800214BDA68D2E90010D3680968006810B404
:103378001842946801EA04012ED0137C03F0030379
:10338800D9B943F008039908013B11740D2B0BD8E8
:10339800DFE803F00D071C070A160D0D160A071CB7
:1033A800070D5369013B53615DF8044B704753693E
:1033B8005DF8044B01335361704743F00403E0E7C1
:1033C80053695DF8044B023B5361704753695DF8DC
:1033D800044B023353617047137C03F00303002945
:1033E800D1D043F00403CEE7F42F0020214B1A6913
:1033F800D2E90010D3680968006810B418429468CC
:1034080001EA04012ED0137C03F00303D9B943F079
:1034180008039908013B11740D2B0BD8DFE803F062
:103428000D071C070A160D0D160A071C070D536910
:10343800013B53615DF8044B704753695DF8044BD9
:1034480001335361704743F00403E0E753695DF8C3
:10345800044B023B5361704753695DF8044B0233D8
:1034680053617047137C03F003030029D1D043F064
:103478000403CEE7F42F0020214B5A69D2E900104B
:10348800D3680968006810B41842946801EA040116
:103498002ED0137C03F00303D9B943F0080399082D
:1034A800013B11740D2B0BD8DFE803F00D071C0747
:1034B8000A160D0D160A071C070D5369013B5361C7
:1034C8005DF8044B704753695DF8044B0133536151
:1034D800704743F00403E0E753695DF8044B023B8F
:1034E8005361704753695DF8044B02335361704769
:1034F800137C03F003030029D1D043F00403CEE783
:10350800F42F0020214B9A69D2E90010D36809688A
:10351800006810B41842946801EA04012ED0137CA4
:1035280003F00303D9B943F008039908013B117468
:103538000D2B0BD8DFE803F00D071C070A160D0D3D
:10354800160A071C070D5369013B53615DF8044BCC
:10355800704753695DF8044B01335361704743F07A
:103568000403E0E753695DF8044B023B536170477D
:1035780053695DF8044B023353617047137C03F0C1
:1035880003030029D1D043F00403CEE7F42F002031
:10359800214BDA69D2E90010D3680968006810B4D1
:1035A8001842946801EA04012ED0137C03F0030347
:1035B800D9B943F008039908013B11740D2B0BD8B6
:1035C800DFE803F00D071C070A160D0D160A071C85
:1035D800070D5369013B53615DF8044B704753690C
:1035E8005DF8044B01335361704743F00403E0E78F
:1035F80053695DF8044B023B5361704753695DF8AA
:10360800044B023353617047137C03F00303002912
:10361800D1D043F00403CEE7F42F0020214B1A6ADF
:10362800D2E90010D3680968006810B41842946899
:1036380001EA04012ED0137C03F00303D9B943F047
:1036480008039908013B11740D2B0BD8DFE803F030
:103658000D071C070A160D0D160A071C070D5369DE
:10366800013B53615DF8044B704753695DF8044BA7
:1036780001335361704743F00403E0E753695DF891
:10368800044B023B5361704753695DF8044B0233A6
:1036980053617047137C03F003030029D1D043F032
:1036A8000403CEE7F42F0020214B5A6AD2E9001018
:1036B800D3680968006810B41842946801EA0401E4
:1036C8002ED0137C03F00303D9B943F008039908FB
:1036D800013B11740D2B0BD8DFE803F00D071C0715
:1036E8000A160D0D160A071C070D5369013B536195
:1036F8005DF8044B704753695DF8044B013353611F
:10370800704743F00403E0E753695DF8044B023B5C
:103718005361704753695DF8044B02335361704736
:10372800137C03F003030029D1D043F00403CEE750
:10373800F42F0020214B9A6AD2E90010D368096857
:10374800006810B41842946801EA04012ED0137C72
:1037580003F00303D9B943F008039908013B117436
:103768000D2B0BD8DFE803F00D071C070A160D0D0B
:10377800160A071C070D5369013B53615DF8044B9A
:10378800704753695DF8044B01335361704743F048
:103798000403E0E753695DF8044B023B536170474B
:1037A80053695DF8044B023353617047137C03F08F
:1037B80003030029D1D043F00403CEE7F42F0020FF
:1037C800214BDA6AD2E90010D3680968006810B49E
:1037D8001842946801EA04012ED0137C03F0030315
:1037E800D9B943F008039908013B11740D2B0BD884
:1037F800DFE803F00D071C070A160D0D160A071C53
:10380800070D5369013B53615DF8044B70475369D9
:103818005DF8044B01335361704743F00403E0E75C
:1038280053695DF8044B023B5361704753695DF877
:10383800044B023353617047137C03F003030029E0
:10384800D1D043F00403CEE7F42F0020214B1A6BAC
:10385800D2E90010D3680968006810B41842946867
:1038680001EA04012ED0137C03F00303D9B943F015
:1038780008039908013B11740D2B0BD8DFE803F0FE
:103888000D071C070A160D0D160A071C070D5369AC
:10389800013B53615DF8044B704753695DF8044B75
:1038A80001335361704743F00403E0E753695DF85F
:1038B800044B023B5361704753695DF8044B023374
:1038C80053617047137C03F003030029D1D043F000
:1038D8000403CEE7F42F0020214B5A6BD2E90010E5
:1038E800D3680968006810B41842946801EA0401B2
:1038F8002ED0137C03F00303D9B943F008039908C9
:10390800013B11740D2B0BD8DFE803F00D071C07E2
:103918000A160D0D160A071C070D5369013B536162
:103928005DF8044B704753695DF8044B01335361EC
:10393800704743F00403E0E753695DF8044B023B2A
:103948005361704753695DF8044B02335361704704
:10395800137C03F003030029D1D043F00403CEE71E
:10396800F42F0020214B9A6BD2E90010D368096824
:10397800006810B41842946801EA04012ED0137C40
:1039880003F00303D9B943F008039908013B117404
:103998000D2B0BD8DFE803F00D071C070A160D0DD9
:1039A800160A071C070D5369013B53615DF8044B68
:1039B800704753695DF8044B01335361704743F016
:1039C8000403E0E753695DF8044B023B5361704719
:1039D80053695DF8044B023353617047137C03F05D
:1039E80003030029D1D043F00403CEE7F42F0020CD
:1039F800214BDA6BD2E90010D3680968006810B46B
:103A08001842946801EA04012ED0137C03F00303E2
:103A1800D9B943F008039908013B11740D2B0BD851
:103A2800DFE803F00D071C070A160D0D160A071C20
:103A3800070D5369013B53615DF8044B70475369A7
:103A48005DF8044B01335361704743F00403E0E72A
:103A580053695DF8044B023B5361704753695DF845
:103A6800044B023353617047137C03F003030029AE
:103A7800D1D043F00403CEE7F42F0020214B1A6C79
:103A8800D2E90010D3680968006810B41842946835
:103A980001EA04012ED0137C03F00303D9B943F0E3
:103AA80008039908013B11740D2B0BD8DFE803F0CC
:103AB8000D071C070A160D0D160A071C070D53697A
:103AC800013B53615DF8044B704753695DF8044B43
:103AD80001335361704743F00403E0E753695DF82D
:103AE800044B023B5361704753695DF8044B023342
:103AF80053617047137C03F003030029D1D043F0CE
:103B08000403CEE7F42F0020214B5A6CD2E90010B1
:103B1800D3680968006810B41842946801EA04017F
:103B28002ED0137C03F00303D9B943F00803990896
:103B3800013B11740D2B0BD8DFE803F00D071C07B0
:103B48000A160D0D160A071C070D5369013B536130
:103B58005DF8044B704753695DF8044B01335361BA
:103B6800704743F00403E0E753695DF8044B023BF8
:103B78005361704753695DF8044B023353617047D2
:103B8800137C03F003030029D1D043F00403CEE7EC
:103B9800F42F0020214B9A6CD2E90010D3680968F1
:103BA800006810B41842946801EA04012ED0137C0E
:103BB80003F00303D9B943F008039908013B1174D2
:103BC8000D2B0BD8DFE803F00D071C070A160D0DA7
:103BD800160A071C070D5369013B53615DF8044B36
:103BE800704753695DF8044B01335361704743F0E4
:103BF8000403E0E753695DF8044B023B53617047E7
:103C080053695DF8044B023353617047137C03F02A
:103C180003030029D1D043F00403CEE7F42F00209A
:103C2800214BDA6CD2E90010D3680968006810B437
:103C38001842946801EA04012ED0137C03F00303B0
:103C4800D9B943F008039908013B11740D2B0BD81F
:103C5800DFE803F00D071C070A160D0D160A071CEE
:103C6800070D5369013B53615DF8044B7047536975
:103C78005DF8044B01335361704743F00403E0E7F8
:103C880053695DF8044B023B5361704753695DF813
:103C9800044B023353617047137C03F0030300297C
:103CA800D1D043F00403CEE7F42F0020214B1A6D46
:103CB800D2E90010D3680968006810B41842946803
:103CC80001EA04012ED0137C03F00303D9B943F0B1
:103CD80008039908013B11740D2B0BD8DFE803F09A
:103CE8000D071C070A160D0D160A071C070D536948
:103CF800013B53615DF8044B704753695DF8044B11
:103D080001335361704743F00403E0E753695DF8FA
:103D1800044B023B5361704753695DF8044B02330F
:103D280053617047137C03F003030029D1D043F09B
:103D38000403CEE7F42F0020214B5A6DD2E900107E
:103D4800D3680968006810B41842946801EA04014D
:103D58002ED0137C03F00303D9B943F00803990864
:103D6800013B11740D2B0BD8DFE803F00D071C077E
:103D78000A160D0D160A071C070D5369013B5361FE
:103D88005DF8044B704753695DF8044B0133536188
:103D9800704743F00403E0E753695DF8044B023BC6
:103DA8005361704753695DF8044B023353617047A0
:103DB800137C03F003030029D1D043F00403CEE7BA
:103DC800F42F0020214B9A6DD2E90010D3680968BE
:103DD800006810B41842946801EA04012ED0137CDC
:103DE80003F00303D9B943F008039908013B1174A0
:103DF8000D2B0BD8DFE803F00D071C070A160D0D75
:103E0800160A071C070D5369013B53615DF8044B03
:103E1800704753695DF8044B01335361704743F0B1
:103E28000403E0E753695DF8044B023B53617047B4
:103E380053695DF8044B023353617047137C03F0F8
:103E480003030029D1D043F00403CEE7F42F002068
:103E5800214BDA6DD2E90010D3680968006810B404
:103E68001842946801EA04012ED0137C03F003037E
:103E7800D9B943F008039908013B11740D2B0BD8ED
:103E8800DFE803F00D071C070A160D0D160A071CBC
:103E9800070D5369013B53615DF8044B7047536943
:103EA8005DF8044B01335361704743F00403E0E7C6
:103EB80053695DF8044B023B5361704753695DF8E1
:103EC800044B023353617047137C03F0030300294A
:103ED800D1D043F00403CEE7F42F0020214B1A6E13
:103EE800D2E90010D3680968006810B418429468D1
:103EF80001EA04012ED0137C03F00303D9B943F07F
:103F080008039908013B11740D2B0BD8DFE803F067
:103F18000D071C070A160D0D160A071C070D536915
:103F2800013B53615DF8044B704753695DF8044BDE
:103F380001335361704743F00403E0E753695DF8C8
:103F4800044B023B5361704753695DF8044B0233DD
:103F580053617047137C03F003030029D1D043F069
:103F68000403CEE7F42F0020214B5A6ED2E900104B
:103F7800D3680968006810B41842946801EA04011B
:103F88002ED0137C03F00303D9B943F00803990832
:103F9800013B11740D2B0BD8DFE803F00D071C074C
:103FA8000A160D0D160A071C070D5369013B5361CC
:103FB8005DF8044B704753695DF8044B0133536156
:103FC800704743F00403E0E753695DF8044B023B94
:103FD8005361704753695DF8044B0233536170476E
:103FE800137C03F003030029D1D043F00403CEE788
:103FF800F42F0020214B9A6ED2E90010D36809688B
:10400800006810B41842946801EA04012ED0137CA9
:1040180003F00303D9B943F008039908013B11746D
:104028000D2B0BD8DFE803F00D071C070A160D0D42
:10403800160A071C070D5369013B53615DF8044BD1
:10404800704753695DF8044B01335361704743F07F
:104058000403E0E753695DF8044B023B5361704782
:1040680053695DF8044B023353617047137C03F0C6
:1040780003030029D1D043F00403CEE7F42F002036
:10408800214BDA6ED2E90010D3680968006810B4D1
:104098001842946801EA04012ED0137C03F003034C
:1040A800D9B943F008039908013B11740D2B0BD8BB
:1040B800DFE803F00D071C070A160D0D160A071C8A
:1040C800070D5369013B53615DF8044B7047536911
:1040D8005DF8044B01335361704743F00403E0E794
:1040E80053695DF8044B023B5361704753695DF8AF
:1040F800044B023353617047137C03F00303002918
:10410800D1D043F00403CEE7F42F0020214B1A6FDF
:10411800D2E90010D3680968006810B4184294689E
:1041280001EA04012ED0137C03F00303D9B943F04C
:1041380008039908013B11740D2B0BD8DFE803F035
:104148000D071C070A160D0D160A071C070D5369E3
:10415800013B53615DF8044B704753695DF8044BAC
:1041680001335361704743F00403E0E753695DF896
:10417800044B023B5361704753695DF8044B0233AB
:1041880053617047137C03F003030029D1D043F037
:104198000403CEE7F42F0020214B5A6FD2E9001018
:1041A800D3680968006810B41842946801EA0401E9
:1041B8002ED0137C03F00303D9B943F00803990800
:1041C800013B11740D2B0BD8DFE803F00D071C071A
:1041D8000A160D0D160A071C070D5369013B53619A
:1041E8005DF8044B704753695DF8044B0133536124
:1041F800704743F00403E0E753695DF8044B023B62
:104208005361704753695DF8044B0233536170473B
:10421800137C03F003030029D1D043F00403CEE755
:10422800F42F0020214B9A6FD2E90010D368096857
:10423800006810B41842946801EA04012ED0137C77
:1042480003F00303D9B943F008039908013B11743B
:104258000D2B0BD8DFE803F00D071C070A160D0D10
:10426800160A071C070D5369013B53615DF8044B9F
:10427800704753695DF8044B01335361704743F04D
:104288000403E0E753695DF8044B023B5361704750
:1042980053695DF8044B023353617047137C03F094
:1042A80003030029D1D043F00403CEE7F42F002004
:1042B800214BDA6FD2E90010D3680968006810B49E
:1042C8001842946801EA04012ED0137C03F003031A
:1042D800D9B943F008039908013B11740D2B0BD889
:1042E800DFE803F00D071C070A160D0D160A071C58
:1042F800070D5369013B53615DF8044B70475369DF
:104308005DF8044B01335361704743F00403E0E761
:1043180053695DF8044B023B5361704753695DF87C
:10432800044B023353617047137C03F003030029E5
:10433800D1D043F00403CEE7F42F0020224BD3F86A
:104348008020D2E90010D3680968006810B41842C8
:10435800946801EA04012ED0137C03F00303D9B951
:1043680043F008039908013B11740D2B0BD8DFE8C3
:1043780003F00D071C070A160D0D160A071C070D7A
:104388005369013B53615DF8044B704753695DF80D
:10439800044B01335361704743F00403E0E753696A
:1043A8005DF8044B023B5361704753695DF8044B59
:1043B800023353617047137C03F003030029D1D003
:1043C80043F00403CEE700BFF42F0020224BD3F8BC
:1043D8008420D2E90010D3680968006810B4184234
:1043E800946801EA04012ED0137C03F00303D9B9C1
:1043F80043F008039908013B11740D2B0BD8DFE833
:1044080003F00D071C070A160D0D160A071C070DE9
:104418005369013B53615DF8044B704753695DF87C
:10442800044B01335361704743F00403E0E75369D9
:104438005DF8044B023B5361704753695DF8044BC8
:10444800023353617047137C03F003030029D1D072
:1044580043F00403CEE700BFF42F0020224BD3F82B
:104468008820D2E90010D3680968006810B418429F
:10447800946801EA04012ED0137C03F00303D9B930
:1044880043F008039908013B11740D2B0BD8DFE8A2
:1044980003F00D071C070A160D0D160A071C070D59
:1044A8005369013B53615DF8044B704753695DF8EC
:1044B800044B01335361704743F00403E0E7536949
:1044C8005DF8044B023B5361704753695DF8044B38
:1044D800023353617047137C03F003030029D1D0E2
:1044E80043F00403CEE700BFF42F0020224BD3F89B
:1044F8008C20D2E90010D3680968006810B418420B
:10450800946801EA04012ED0137C03F00303D9B99F
:1045180043F008039908013B11740D2B0BD8DFE811
:1045280003F00D071C070A160D0D160A071C070DC8
:104538005369013B53615DF8044B704753695DF85B
:10454800044B01335361704743F00403E0E75369B8
:104558005DF8044B023B5361704753695DF8044BA7
:10456800023353617047137C03F003030029D1D051
:1045780043F00403CEE700BFF42F0020224BD3F80A
:104588009020D2E90010D3680968006810B4184276
:10459800946801EA04012ED0137C03F00303D9B90F
:1045A80043F008039908013B11740D2B0BD8DFE881
:1045B80003F00D071C070A160D0D160A071C070D38
:1045C8005369013B53615DF8044B704753695DF8CB
:1045D800044B01335361704743F00403E0E7536928
:1045E8005DF8044B023B5361704753695DF8044B17
:1045F800023353617047137C03F003030029D1D0C1
:1046080043F00403CEE700BFF42F00206329F0B580
:10461800044685B00E46104603DD94F8F854002D84
:104628003FD0036804F223211B689847C0F307238F
:104638005FFA86FE4FF6FF61034446F30726A4F8A7
:104648001C12DB4384F82262A4F81E0284F820328C
:10465800431C84F821E22EDB04F2222204F22123F7
:104668004FF0000C024401E013F801EF9342F444C8
:10467800FAD16FEA0C0C5FFA8CFC00F1080540F2E5
:10468800012322189D4282F823C217D0666804F5D8
:104698000770334A33685B68934205D1294605F0B1
:1046A800DDF8284605B0F0BD01462A463046984751
:1046B800284605B0F0BD4FF0FF0CDEE7294A03217C
:1046C80023688DF808101B680192274A274D9342EA
:1046D80003953AD104F50A7605F1300EAC4610364A
:1046E8001035BCE80F00F44546F8100C46F80C1CD1
:1046F80046F8082C46F8043CF0D13823DFF874E07B
:104708001B4F04F2212203CD306004F25F20716058
:104718000721C4F824320023C4E987E701E012F82E
:10472800011F90420B44FAD1DB4365680C4A04F53B
:10473800077084F860322B685B6893420AD1452180
:1047480005F08CF84FF0FF35ABE701AA07212046AA
:104758009847F7E70146452228469847F2E700BF01
:10476800950500009C0E00209D270000DC0C002011
:10477800C2070003FFFE3D0030B5002183B0244D81
:1047880004460DF106034160056001AA8160C1601D
:104798000DF102011F4802F0F7FBBDF90230204677
:1047A80005EE103ABDF9043006EE103ABDF90630B0
:1047B800B8EEC55B07EE103AB8EEC66B9FED103B3E
:1047C800B8EEC77B25EE035B26EE036B27EE037B73
:1047D8009FED0D4B25EE045B26EE046B27EE047B64
:1047E800B7EEC55BB7EEC66BB7EEC77B84ED015A73
:1047F80084ED026A84ED037A03B030BDAFF3008024
:10480800000000000000103F1F85EB51B89E2340B8
:104818006C0E0020A430002030B5002183B0244D58
:1048280004460DF106034160056001AA8160C1607C
:104838000DF102011F4802F0C7FBBDF90230204606
:1048480006EE103ABDF9043007EE103ABDF906300D
:10485800B8EEC66B02EE103AB8EEC77B9FED103B80
:10486800B8EEC22B86EE035B87EE036B82EE037B0A
:104878009FED0D4B25EE045B26EE046BB7EEC55B92
:1048880027EE047B84ED015AB7EEC66BB7EEC77B03
:1048980084ED026A84ED037A03B030BDAFF3008083
:1048A8000000000000606040399D52A246DF913F41
:1048B8006C0E00200C3100200B4610B5272800F2A2
:1048C8009B81DFE810F0900186017D0174016B0186
:1048D80062015901500147013E0135012C012301B4
:1048E8001A0111010801FF00F600ED00E400DB00E9
:1048F800D200C900C000B700AE00A5009C0093001C
:104908008A00810078006E0064005A00500046005A
:104918003C0032002800B94C0422B9492720C4F8C9
:104928009C3003F0CBFB012010BDB44C0422B549E8
:104938002620C4F8983003F0C1FB012010BDAF4C0D
:104948000422B1492520C4F8943003F0B7FB0120B4
:1049580010BDAA4C0422AD492420C4F8903003F0BD
:10496800ADFB012010BDA54C0422A9492320C4F8A1
:104978008C3003F0A3FB012010BDA04C0422A549F4
:104988002220C4F8883003F099FB012010BD9B4C0D
:104998000422A1492120C4F8843003F08FFB0120B0
:1049A80010BD964C04229D492020C4F8803003F0A5
:1049B80085FB012010BD914C042299491F20E36713
:1049C80003F07CFB012010BD8C4C042295491E206D
:1049D800A36703F073FB012010BD884C04229249A1
:1049E8001D20636703F06AFB012010BD834C04227D
:1049F8008E491C20236703F061FB012010BD7F4C0A
:104A080004228B491B20E36603F058FB012010BDEC
:104A18007A4C042287491A20A36603F04FFB012031
:104A280010BD764C042284491920636603F046FBC6
:104A3800012010BD714C042280491820236603F020
:104A48003DFB012010BD6D4C04227D491720E36514
:104A580003F034FB012010BD684C0422794916206C
:104A6800A36503F02BFB012010BD644C042276499A
:104A78001520636503F022FB012010BD5F4C042262
:104A880072491420236503F019FB012010BD5B4C0B
:104A980004226F491320E36403F010FB012010BDCA
:104AA800564C04226B491220A36403F007FB012033
:104AB80010BD524C042268491120636403F0FEFAC9
:104AC800012010BD4D4C042264491020236403F0DA
:104AD800F5FA012010BD494C042261490F20E36317
:104AE80003F0ECFA012010BD444C04225D490E206D
:104AF800A36303F0E3FA012010BD404C04225A4995
:104B08000D20636303F0DAFA012010BD3B4C042248
:104B180056490C20236303F0D1FA012010BD374C0D
:104B2800042253490B20E36203F0C8FA012010BDA8
:104B3800324C04224F490A20A36203F0BFFA012035
:104B480010BD2E4C04224C490920636203F0B6FACA
:104B5800012010BD294C042248490820236203F093
:104B6800ADFA012010BD254C042245490720E36118
:104B780003F0A4FA012010BD204C0422414906206C
:104B8800A36103F09BFA012010BD1C4C04223E498E
:104B98000520636103F092FA012010BD0422174C2E
:104BA8003A491046236103F089FA012010BD134CDD
:104BB800042237490320E36003F080FA012010BD86
:104BC8000E4C042233490220A36003F077FA012037
:104BD80010BD0446094804222F494360012003F010
:104BE8006DFA204610BD054C04222C490020236094
:104BF80003F064FA012010BD002010BDF42F00203E
:104C08002912000049130000B91200000D27000006
:104C18007D260000ED2500005D250000CD24000064
:104C280041240000B5230000292300009D22000034
:104C38001122000085210000F92000006D200000ED
:104C4800E11F0000551F0000C91E00003D1E0000A6
:104C5800B11D0000251D0000991C00000D1C00005E
:104C6800811B0000F51A0000691A0000DD19000018
:104C780051190000C518000039180000AD170000D0
:104C88002117000095160000091600007D15000088
:104C9800F114000065140000D91300009D110000F4
:104CA8002DE9F04182B004460F4616469DF820C013
:104CB8001D46BCF1000F01D017460E4602213846AA
:104CC80003F0C2F90221304603F0BEF925493B0141
:104CD8002548DFF89CC051F8038001EB07132560D5
:104CE800D3F80CE001EB0613C4F80C80C4F814E008
:104CF800DA683301C9580023A26123621B4B456857
:104D08001B682161ACFB033C4FF4FA634FEA9C4CEF
:104D180003FB0CFC43685B1B9C45FBD8D8F80030B0
:104D2800384609681EEA030F14BF012300230A420C
:104D380004F10C0118BF43F0020301912377FFF738
:104D4800BBFD03460199304684F82430FFF7B4FDD3
:104D580094F8242003462046134484F8243002B0F3
:104D6800BDE8F081780F0020001000E0D81C00207A
:104D780083DE1B4300000000F0B5C74CF6EE007A56
:104D8800C64AC74B94ED001AD2ED000A93ED000A0B
:104D980021EE271AC3492DED048B8BB006A802F02B
:104DA800E1FAC14B93F82420012A40F2E08172B65F
:104DB8001A6A62B69D689A60521BBC49D3ED006AB4
:104DC80007EE902A5D680868B8EEE66BB8EEE77BF8
:104DD800B74A5860401B92F8243087EE065B07EE0E
:104DE800900A012BB8EE677B9FEDA54B87EE046B0D
:104DF80085EE068BBDEEC88B40F2A68172B6136AAB
:104E080062B65568086892ED005A5060401BB8EECB
:104E1800C55B07EE900A906893601B1AB8EE676B43
:104E280007EE103AA34BB8EEC77B93F824209FED0A
:104E3800943B012A86EE034B87EE056B86EE047BD6
:104E4800FDEEC78B40F26C8172B61A6A62B65D6875
:104E5800086893ED006A5860401BB8EEC66B07EE11
:104E6800900A98689A60B8EE677B121A924B9FED89
:104E7800844B87EE045B07EE902A93F82420012ADE
:104E8800B8EEE77B87EE064B84EE059BBDEEC99B2B
:104E980040F2328172B6186A62B65A68F8EEC80AE9
:104EA8000968D3ED006A8A1A5960B8EEE66B07EE16
:104EB800902A9A689860B8EE677B821A7F489FEDBF
:104EC800704B87EE045BDDED067AB8EEE70A07EE75
:104ED800902AB8EEE77B87EE064B84EE057BFDEE65
:104EE800C79B02F01DFDFDEEC07B754817EE901ABA
:104EF80002F0B0FCDDED077A7248F8EEE80AB8EE89
:104F0800E70A02F00DFDFDEEC07B6F4817EE901A20
:104F180002F0A0FCDDED087A6C48F8EEC90AB8EE9C
:104F2800E70A02F0FDFCFDEEC07B694817EE901A17
:104F380002F090FCDDED097A6648F8EEE90AB8EE71
:104F4800E70A02F0EDFCFDEEC07B634817EE901A0D
:104F580002F080FC53480378023B012B76D919EE06
:104F6800103A18EE902A18EE101ACDED009A02F0B9
:104F780043FA8DED030ACDED040A8DED051A574964
:104F8800574F584D039C0498059A6C60A860EA60D6
:104F9800D1E902131E683668BE4240F011816329C8
:104FA8004CDC250A83F8234283F8270283F824522D
:104FB800250C240E83F82B2283F8255283F82642E9
:104FC800040A494D83F82842040C000EC3F81C5209
:104FD80083F82942140A83F82A02100C83F82C4219
:104FE800120EF32483F82D02C8B241F3072183F887
:104FF8002E2203F2212283F82212002183F8204274
:1050080003F22E2483F8210201E012F8010F9442E2
:105018000144FAD1C9435C6803F50770334A83F841
:105028002F1223685B68934240F0DF8114210BB094
:10503800BDEC048BBDE8F04004F010BC93F8F854C4
:10504800002DAED10BB0BDEC048BF0BD94ED009AF1
:105058009FED0D6BB7EEC97AB4EEC67BF1EE10FA90
:1050680000F198809FED0A6BB4EEC67BF1EE10FA62
:1050780040F35E8100219FED1E9A8EE0AFF3008021
:1050880000000000004CED408FC2F5285C8FDABFAD
:105098008FC2F5285C8FDA3F0031002008310020EC
:1050A800043100201C3100204C31002044380020FD
:1050B80088310020C431002000320020E828002078
:1050C8003831002018290020743100204829002098
:1050D800B031002078290020EC310020D83700209A
:1050E8009D270000C8370020FFFE0C009505000032
:1050F800E17AD43EE17AD4BE72B6D8685A690068BB
:1051080010401A6915689A69154200F0E5801A7FFF
:1051180002F0030208B142F0040242F00802E1E0A2
:1051280072B6D8685A69006810401A6915689A6991
:10513800154200F0A5801A7F02F0030208B142F080
:10514800040242F00802A1E072B6D0685369006810
:10515800184013691D6893691D4265D0137F03F0D9
:10516800030308B143F0040343F0080362E072B696
:10517800D3E903105A690968006811409A69104216
:1051880027D01A7F02F0030209B142F0040242F06C
:10519800080224E0B4211FED299A9B4802F0B2FAD4
:1051A800B0EE490A18EE902A18EE101A974802F045
:1051B800F7F88DED030ACDED040A8DED051ADEE64C
:1051C80018462A4633460BB0BDEC048BBDE8F040C8
:1051D80018471A7F02F0030209B142F0040291084D
:1051E800013A19770D2A3FF6E3AD01A151F822F0F3
:1051F800133500000B350000733500000B35000037
:10520800412F00006B3500001335000013350000F6
:105218006B350000412F00000B350000733500008E
:105228000B35000013350000137F03F0030308B1AA
:1052380043F004039808013B10770D2B3FF6DFADD0
:1052480001A050F823F000BF233500001B350000F3
:10525800433500001B3500008F2F00003B35000050
:1052680023350000233500003B3500008F2F000058
:105278001B350000433500001B35000023350000B6
:105288001A7F02F0030208B142F004029008013AC2
:1052980018770D2A3FF6D9AD01A050F822F000BFCB
:1052A80003350000FB34000063350000FB340000C8
:1052B800DB2F00005B3500000335000003350000DC
:1052C8005B350000DB2F0000FB3400006335000075
:1052D800FB340000033500001A7F02F0030208B116
:1052E80042F004029008013A18770D2A3FF6D3AD30
:1052F80001A050F822F000BF333500002B35000024
:10530800533500002B350000273000004B350000D6
:1053180033350000333500004B35000027300000DE
:105328002B350000533500002B35000033350000C5
:10533800DFED377A9FED377A79EE277A9FED365A87
:10534800DFED365A67EE877A9FED2D6B87EE857A0B
:1053580037EE257AB7EEC77A27EE067BB7EEC77B1E
:10536800FDEEC77A17EE901A17E71A6A013A1A6221
:105378006CE51A6A01321A6268E51A6A013A1A6219
:1053880017E51A6A01321A6213E5136A013B1362C0
:1053980036E5136A0133136232E5186A0138186278
:1053A8007AE5186A0130186276E5136A023B1362DF
:1053B80026E5136A0233136222E5186A0238186276
:1053C8006AE5186A0230186266E51A6A023A1A62D1
:1053D8003CE51A6A02321A6238E51A6A023A1A6217
:1053E800E7E41A6A02321A62E3E40146142220460C
:1053F8000BB0BDEC048BBDE8F0401847AFF300805C
:10540800F8C1631ADCA54C40383800201C31002054
:10541800E17AD43EDB0F49C0E17A543FDB0F4940C3
:10542800F0B585B0634D644E6846FFF7A5F901995C
:10543800029A6846039BA960EA602B61FFF7ECF9C2
:1054480000235E4AAB62EB622B63039B01992B62DC
:10545800A9610299D2E90274E96123681B68B34221
:1054680049D1632F41DC04F223215248FDF7FAFBAE
:10547800C0F307235FFA87FE47F307270344A4F81E
:105488001E0284F82272DB4384F821E284F8203279
:105498004FF6FF63A4F81C32431C3ADB04F22222C5
:1054A80004F221234FF0000C024401E013F801EF4D
:1054B8009342F444FAD16FEA0C0C5FFA8CFC23187F
:1054C80000F1080183F823C240F20123994223D056
:1054D800656804F507703A4A2B685B68934211D1F6
:1054E80005B0BDE8F04004F0B9B994F8F834002BE1
:1054F800B9D105B0F0BD2A463946204605B0BDE809
:10550800F04018470A460146284605B0BDE8F04075
:1055180018474FF0FF0CD2E703232A4A2A4D8DF88B
:105528000430009223681B680295B34237D104F512
:105538000A7605F1300C2F46103610350FCF674527
:1055480046F8100C46F80C1C46F8082C46F8043CA3
:10555800F1D13823DFF878C01C4F04F2212203CDA3
:10556800306004F25F2071600721C4F82432002300
:10557800C4E987C701E012F8011F90420B44FAD131
:10558800DB4365680E4A04F5077084F860322B68BF
:105598005B68934208D1452104F060F9A9E76A469F
:1055A800072120469847A4E7014645222846984700
:1055B8009FE700BF803700209D270000B4370020F8
:1055C800950500009C0E0020DC0C0020C20700039B
:1055D800FFFE3D00C24B2DE9F04393F824208FB025
:1055E800012A40F2418172B61A6A62B6BD4C0026A1
:1055F800BD4901A805F0A8FF01A807F0D9F801A93D
:105608008046024684F8240204F50A7084F825626C
:105618000727A4F8266204F2212502F0D9FD4FF6E7
:10562800FF6308F10B02AC46A4F81C3208F105032D
:1056380084F81F62DBB284F8217284F81E32DB43DF
:1056480084F820324FF48073A4F82232052301E055
:105658001CF8017F01333E449342F9DDF64304EB25
:105668000803606808F10D0183F8286203689F4EFB
:105678005B68B34240F058829D4F384604F0EEF81C
:105688009C4B93F82420012A40F2428172B61A6A90
:1056980062B6994901A805F057FF4FF0000901A823
:1056A80007F086F88046024601A984F8240284F8A7
:1056B80025929248A4F8269202F08AFD08F1050383
:1056C8004FF0070ECC46DBB208F10B012A4684F8EE
:1056D8001F9284F81E32DB4384F821E284F82032DA
:1056E8004FF6FF63A4F81C324FF48073A4F82232FB
:1056F800052301E012F801EF0133F4448B42F9DD90
:1057080004EB08036FEA0C0C606808F10D0183F8DC
:1057180028C203685B68B34240F00B82384604F045
:105728009DF8774B93F82420012A40F2C58072B681
:105738001A6A62B6734901A805F006FF4FF000091E
:1057480001A807F035F88046024601A984F824022A
:1057580084F825926948A4F8269202F039FD08F1E8
:1057680005034FF0070ECC46DBB208F10B012A46C1
:1057780084F81F9284F81E32DB4384F821E284F80F
:1057880020324FF6FF63A4F81C324FF48073A4F85C
:105798002232052301E012F801EF0133F4448B4271
:1057A800F9DD04EB08036FEA0C0C606808F10D01E1
:1057B80083F828C203685B68B34240F0AB8138467F
:1057C80004F04CF8504B93F82420012A60D972B6A3
:1057D8001A6A62B64D4901A805F0B6FE4FF00009F5
:1057E80001A806F0E5FF8046024684F8240201A9D4
:1057F800424884F82592A4F8269202F0E9FC08F1C0
:1058080005034FF0070ECC46DBB208F10B0284F813
:105818001F9284F81E32DB4384F821E284F8203298
:105828004FF6FF63A4F81C324FF48073A4F82232B9
:10583800052301E015F801EF0133F4449A42F9DA3F
:1058480004EB08036FEA0C0C606808F10D0183F89B
:1058580028C203685B68B34240F06081384603F0B1
:10586800FDFF0FB0BDE8F08372B6D3E90310D3E9AA
:105878000542096800682140104200F0DF801A7F65
:1058880002F0030209B142F0040242F00802DBE030
:1058980072B6DA6811681A6910685A6911409A690B
:1058A800104200F09F801A7F02F0030209B142F013
:1058B800040242F008029BE072B6DA6811681A69BD
:1058C80010685A6911409A6910425FD01A7F02F035
:1058D800030209B142F0040242F008025CE000BF92
:1058E8004C31002028320020340B002095050000A0
:1058F8004434002088310020500B00205034002010
:10590800C43100206C0B002000320020880B0020DE
:1059180072B6DA6811681A6910685A6911409A698A
:10592800104208D01A7F02F0030209B142F00402C3
:1059380042F0080205E01A7F02F0030209B142F0C2
:1059480004029108013A19770D2A3FF6A0AE01A189
:1059580051F822F05D3C0000553C00007D3C000001
:10596800553C00001F380000753C00005D3C0000FD
:105978005D3C0000753C00001F380000553C0000ED
:105988007D3C0000553C00005D3C00001A7F02F0A1
:10599800030209B142F004029108013A19770D2A6D
:1059A8003FF6C6AE01A151F822F000BF4D3C000001
:1059B800453C00006D3C0000453C0000C13800003B
:1059C800653C00004D3C00004D3C0000653C00007B
:1059D800C1380000453C00006D3C0000453C00001B
:1059E8004D3C00001A7F02F0030209B142F00402A4
:1059F8009108013A19770D2A3FF6EAAE01A151F84C
:105A080022F000BF3D3C0000353C00009D3C0000FA
:105A1800353C000061390000953C00003D3C000029
:105A28003D3C0000953C000061390000353C000019
:105A38009D3C0000353C00003D3C00001A7F02F010
:105A4800030209B142F004029108013A19770D2ABC
:105A58003FF6CAAD01A151F822F000BF2D3C00006D
:105A6800253C00008D3C0000253C000079370000F3
:105A7800853C00002D3C00002D3C0000853C0000CA
:105A880079370000253C00008D3C0000253C0000D3
:105A98002D3C00001A6A013A1A62A6E51A6A013218
:105AA8001A62A2E51A6A013A1A6292E61A6A013281
:105AB8001A628EE61A6A013A1A623AE61A6A0132DC
:105AC8001A6236E61A6A013A1A62E1E51A6A01327E
:105AD8001A62DDE51A6A023A1A622AE61A6A02327C
:105AE8001A6226E61A6A023A1A62D1E51A6A02327C
:105AF8001A62CDE51A6A023A1A6276E51A6A023221
:105B08001A6272E51A6A023A1A6262E61A6A02327E
:105B18001A625EE60A463946984753E60A46394607
:105B280098470FB0BDE8F083044F0A4639469847B6
:105B3800A6E50A4639469847F3E500BF44340020F5
:105B480030B5002385B01E4904461E4A0393CDE9AB
:105B5800011301680D68954228D11B4840F6F721CA
:105B680004F22122C4F82432A4F8283284F82A3214
:105B7800C4E9870104F22A200A2101E012F8011F72
:105B880082420B44FAD1DB436568104A04F507707A
:105B980084F82B322B685B6893420BD1102103F0F9
:105BA8005DFE0B4B1B68E36005B030BD01AA0A21FE
:105BB800A847F6E70146102228469847F1E700BFB4
:105BC800100F00209D270000FFFE0800950500002B
:105BD800443800202DE9F04FAA4B8BB0AA49002287
:105BE800044600F5836600F27C45A84FDFF8A892CA
:105BF800DFF8A882069304910793CDE9083256F896
:105C0800043F002B64D01A68D3E901010368ADF89A
:105C1800141006929B689847336807905868036881
:105C2800DB68984723684FF4007132681B68D2F824
:105C380010A0BB420890099140F0C680BAF1630FEA
:105C480003DD94F8F834002B42D004F2232104A891
:105C5800FCF78CFB4FF6FF635FFA8AFC421CA4F842
:105C68001C32C0F307234AF3072A84F821C20344ED
:105C7800A4F81E0284F822A26FEA030384F82032F3
:105C8800C0F2B38004F2222104F22123002201444D
:105C980001E013F801CF8B426244FAD1D243D3B268
:105CA80000F1080140F2012204EB000C91428CF84B
:105CB800233200F09C80D4F804C004F50770744ABD
:105CC800DCF800305B68934240F0838003F0C6FD47
:105CD800B54294D104F59C666C4FDFF8BC91DFF8AF
:105CE800BC8155F8040F002861D00368D0E901127F
:105CF8009B68ADF81410069298472B6807901A68AD
:105D08001846D36898472B6808904FF400711A68B2
:105D1800184623680991D3F800B053689847BB45E3
:105D280082464CD1632803DD94F8F834002B3ED02A
:105D380004F2232104A8FCF719FB4FF6FF635FFA6E
:105D48008AFC4AF3072AA4F81C32C0F30723014649
:105D580084F821C20344A4F81E0284F822A2DB437B
:105D680084F82032431C3EDB04F2222004F2212373
:105D78000022084401E013F801CF98426244FAD1A6
:105D8800D243D3B2601840F20122083180F823329E
:105D9800914200F08780D4F804C004F507703C4AAB
:105DA800DCF800305B68934218D103F057FDB54228
:105DB80097D1012384F8F8340BB0BDE8F08F014681
:105DC80004AA2046D847F2E704AA51462046984735
:105DD8007EE70A4601466046984779E70A46014643
:105DE80060469847E3E7FF23CCE7FF2358E7032300
:105DF800CDF804908DF808302368D3F800A0254B1F
:105E0800BA45039340F097809C4604F50A7E03F157
:105E1800300BE2460EF1100E0CF1100CBAE80F0030
:105E2800DA454EF8100C4EF80C1C4EF8082C4EF8BB
:105E3800043CEED13823DFF868A004F22122BCE844
:105E48000300CEF8000004F25F20CEF8041007210A
:105E5800C4F81C82C4E988A3002301E012F8011FDA
:105E680082420B44FAD1DB436268094804F50771A2
:105E780084F8603213685B68834266D1084645211E
:105E880024E700BFDC140020B40E00209D2700008A
:105E980095050000DC0C00209C0E0020FFFE3D0054
:105EA800C20700030323CDF804908DF80830236857
:105EB800D3F800A0294BBA45039341D19C4604F579
:105EC8000A7E03F1300BE2460EF1100E0CF1100CB5
:105ED800BAE80F00DA454EF8100C4EF80C1C4EF8D4
:105EE800082C4EF8043CEED13823DFF878A004F2F1
:105EF8002122BCE80300CEF8000004F25F20CEF8AF
:105F080004100721C4F81C82C4E988A3002301E017
:105F180012F8011F82420B44FAD1DB436268104831
:105F280004F5077184F8603213685B68834210D106
:105F38000846452139E701AA07212046D047C7E688
:105F480001AA07212046D04731E710464522984745
:105F5800BEE610464522984729E700BFDC0C002022
:105F680095050000C20700032DE9F047B94F42F636
:105F7800F822D0F8003584B03E680446F31A9342FC
:105F880002D9002380F8F834D4F8E43423B1D4F8E3
:105F98000435B342C0F00C81AF4DDFF8D882DFF88A
:105FA800D892A36923B13A68921B9342C0F0048146
:105FB800606803685B69AB4240F0DB8003F028FC53
:105FC8000028C0F2DA80D4F8F434D4F8E424034486
:105FD800072AC4F8F43400F0BC80082AE1D801A1EB
:105FE80051F822F0C142000047420000314200004F
:105FF8001D4200000B420000FB410000D941000097
:106008003341000099410000944A00211A40C4F825
:10601800E414FF2AC5D1D4F8EC34002B00F06281D7
:106028000A2B00F0CE80062B00F043810B2B00F0EA
:10603800F180BC3354F823000028B2D0036804F17F
:106048001C011B689847ACE7D4F8EC34072203EB33
:106058000023C4F8E424D4F8E824C4F8EC34002A73
:106068009FD10823C4F8E4349BE70623C4F8EC0462
:10607800C4F8F404C4F8E43493E7784A1A40FF2AD1
:106088000CBF05230023C4F8E4348AE7D4F8E834C5
:10609800042203EB0023C4F8E424C4F8E83480E7BE
:1060A80000220323C4F8E804C4F8F404C4F8F02474
:1060B800C4F8E43475E7FE2876D00023C4F8E43445
:1060C80094F8F834002B7FF46CAF2268D2F800A063
:1060D800634A0192634A9245CDE9023340F0F38066
:1060E800614940F6F72204F22A20C4F82432A4F8C1
:1060F800283284F82A32C4E9871204F221220A21BC
:1061080001E012F8011F82420B44FAD1DB436268B6
:10611800564904F5077084F82B3213685B688B4284
:1061280040F0D680102103F099FB3B68E36038E724
:10613800FF2831D03B6841F288329B1B93427FF69F
:1061480030AF00236FF0010084F8F83404B0BDE8E4
:10615800F087D4F8F0345A1C2344C4F8F024187794
:10616800D4F8E834013BC4F8E834002B7FF419AFC5
:1061780077E798470028BFF626AF94F8F804002878
:10618800E4D0D4F8FC3440F6C412F31A934244D84D
:10619800002004B0BDE8F0870123C4F8E43406F118
:1061A8001403C4F80435FCE60223C4F8E434F8E622
:1061B8000023C4F8E434EFE66FF0010004B0BDE852
:1061C800F087E2684FF47A7C39683B68891AA8FB43
:1061D8000320E269A2EB90128009013A0CFB10330C
:1061E800A8FB01E002EB901280092261204A0CFB17
:1061F8001011206A02FB1393034404F1100002FB00
:106208000133214641F8143F00F0D0FB3B68C4F845
:106218000035C6E684F8F814C3E62268002310495E
:106228001568104A01919542CDE9023355D10E4ABD
:1062380004F22A200A21C4F82432C4F81C2240F6A9
:10624800F722A4F82832C4F8202204F2212284F884
:106258002A3215E0443800207D030000FF0000804A
:10626800100F00209D270000FFFE08009505000084
:1062780040420F00D34D621000CA9A3B12F8011F2A
:1062880082420B44FAD1DB4362681F4904F5077068
:1062980084F82B3213685B688B4230D1102103F0ED
:1062A800DDFA3B680020C4F8FC64E36004B0BDE894
:1062B800F08704F11C0104F20C50FCF7D7F8012315
:1062C80084F808356DE601AA0A212046D0472CE754
:1062D800014610461022984727E701AA0A212046BE
:1062E800A847DEE72046FFF72BFC2046FFF772FCA5
:1062F8004FF0FF30C4F8FC64C4F8006526E7014697
:10630800104610229847CCE7950500002DE9F84380
:1063180014216048604D01F0EFF95A215D4801F001
:10632800F1F95E4C2E6840F2EE285D4FDFF8A0913F
:1063380003F012FB2378002B00F096803B78DB07F4
:1063480040F192802B68D9F800209B1A0E2B40F25E
:106358008B80544C00234FF4614004F27C42C4F813
:10636800E434C4F8E8341146C4F8F034C4F8EC3422
:10637800A06002E00133192B0AD051F8040F00285D
:10638800F8D1494903F59070643344F820104B6004
:10639800002302E00133192B0AD052F8041F002908
:1063A800F8D1424A03F59071643344F821205360D0
:1063B8003F4A0023114602E00133192B0BD051F854
:1063C800040F0028F8D13B4904EB83007D33C0F863
:1063D8001C14C1E90234002302E00133192B0BD04D
:1063E80052F8041F0029F8D1334A04EB83017D33A6
:1063F800C1F81C24C2E9023494F8F8343BB9294D99
:106408002846FFF7B1FD94F8F834002BF8D02B4A52
:1064180007272B4B0025DFF8BCC02A4EC4E9872389
:106428001223C4F82432BCE80F000FC6DCF80020A1
:10643800334623F81729721C01E013F8017F9342B1
:106448003D44FAD1ED4360681F4A84F83A52036824
:106458005B68934216D11F211C4803F0FFF9012005
:10646800BDE8F84301F072BD2B6822789B1B32B15E
:10647800B3F5FA6F3FF66DAF03F06EFA58E7434590
:10648800FAD966E71F22114998470120BDE8F84369
:1064980001F05CBD383800204438002072380020F4
:1064A80071380020283200205C370020B4300020EA
:1064B80040360020D8370020B4370020FFFE1700F0
:1064C800E8070001503400209505000044340020FE
:1064D80054380020E01200202DE9F0475F4C604D51
:1064E80023682A689B1A312B6AD85E4A2368126887
:1064F8009B1AB3F5C87F06D300235B485B495C4A07
:1065080003600B6013605B4D23682A689B1A312B6C
:1065180006D9594F3E7876B1FEF782FF23682B6083
:10652800564D23682A689B1AC72B4ED85448FFF744
:106538001BFDBDE8F08753480DF06AF8524800F09B
:10654800E5FC514800F006FD002847D100234C4ED9
:106558004E484FF0070E3B709A464D4B06F50A78A9
:10656800DFF8489106F2212C06F25B27C6E987037B
:106578003423C6F82432B9E80F00A8E80F00B9E8B8
:106588000F00A8E80F00B9E80F00A8E80F00D9F835
:106598000030C8F8003001E01CF801EF6745F2440C
:1065A800FAD16FEA0A0370683A4A86F85C320368DF
:1065B8005B6893424AD14121374803F04FF9ADE770
:1065C800FEF7DAFB23682B608FE7FFF703F82368F1
:1065D8002B482B60FFF7C8FCBDE8F0872F4800F078
:1065E80095FC2E4800F0B6FC0028AFD001232C4AB9
:1065F800B446234E2B493B7006F50A792A4B06F21E
:10660800212EC6F81C220F2206F236280727C6E9D3
:1066180088120FCBA9E8070029F8023B1B0C89F860
:10662800003001E01EF8017FC645BC44FAD16FEA8C
:106638000C0C7068174A86F837C203685B68934287
:1066480008D11C21144803F009F967E741221249CF
:10665800984763E71C22104998475FE744380020B1
:106668009C300020FC30002004310020083100203C
:106678000031002094300020683800209830002035
:1066880028320020EC1C0020A4300020FFFE390036
:10669800C607000495050000443400200C31002092
:1066A800FFFE1400EB07000130120020F811002053
:1066B800F0B590480024012604254FF400772DED0D
:1066C800048B83B09FED8C8A00F01CFC8B4800F093
:1066D80019FC40F254631622172100948848FEF7EB
:1066E800DFFA009640F254630C220D218548FEF72C
:1066F800D7FA009640F254630E220F218248FEF723
:10670800CFFA40F254631022112100947F48FEF71B
:10671800C7FA7F4800F07CFF2246214600960223F4
:106728007C4801F055F821460095052303227A4854
:1067380001F04EF80A2221460B23009209227748DD
:1067480001F046F80722DFED769A08239FED759A47
:106758002146DFED758A00920622744801F038F868
:10676800B0EE482AF0EE481A7148B0EE691AF0EE19
:10677800490AB0EE680A01F0C7F8B0EE482AF0EE10
:10678800481A6C48B0EE691AF0EE490AB0EE680A89
:1067980001F0BAF8B0EE482AF0EE481A6648B0EEB2
:1067A800691AF0EE490AB0EE680A01F0ADF8B0EEE9
:1067B800482AF0EE481A6148B0EE691AF0EE490A24
:1067C800B0EE680A01F0A0F89FED5D1ADFED5D0AF2
:1067D80029469FED5D0AFA225C485D4D00F030FDC8
:1067E8005C4B214685F8F84464222B6005F21C4076
:1067F800594BC5F828456B604FF46143C5F83045DF
:10680800AB60564BC5F80C3504F082FF2146642274
:1068180005F5906004F07CFF3A46214605F11C001E
:1068280004F076FF3A46214605F5077004F070FF3C
:106838004B4B4C4A4C491A604C4A83ED058ADA6046
:106848004B4A19611A634B4A83ED068A9A6083EDB5
:10685800078A494A196283ED098A83ED0A8A83ED1A
:106868000B8A5E634548464BD06013604548464BEB
:10687800D06193604548464B464FC5F81045C5F86A
:106888001845C5F81C45C5F82445AC6182ED048A55
:10689800414D82ED058A82ED068A166259603F4AAB
:1068A80083ED028A83ED038A83ED048A59611F60B0
:1068B80083ED068A596283ED078A83ED088A83EDA2
:1068C8000A8A83ED0B8A83ED0C8A4360344B354E7C
:1068D800046116602C6182ED018A82ED028A82EDE4
:1068E800038AC5E90032304B036003B0BDEC048B6A
:1068F800F0BD00BFA4300020000000000C310020D3
:106908004C31002088310020C431002000320020A2
:10691800383800203831002074310020B031002090
:10692800CDCC4C3E00007F43008080C3EC3100207A
:10693800E82800201829002048290020782900206C
:10694800AAF1823E04564E3E5305A33D1C31002059
:1069580028320020FC0E0020DC1C0020840E0020C1
:10696800B4300020CC0E00206C0E0020540E002005
:106978000D030000180B00205C370020580F002082
:10698800E40E00209D050000200B0020B4370020F5
:1069980080370020400F0020D8370020C83700205B
:1069A8002C0B0020280F0020240B00200B6830B48B
:1069B8005A0A074C0568A4FB0242D40905EBD21217
:1069C8000260044A02FB143330BC0B60704700BFFE
:1069D800834B040000CA9A3B0020704790F8A3201C
:1069E80090F8A200101A704790F8A23090F8A320EF
:1069F8009A4205D95A1C034480F8A220987E704711
:106A08004FF0FF30704700BF90F8A23090F8A320F5
:106A18009A4202D91844807E70474FF0FF30704781
:106A2800704700BF0346B0F8300178B193F82F21C2
:106A3800882A03D9012200205A60704702F1010C0C
:106A480001201A4483F82FC182F8A510704700BFAF
:106A580038B5B0F830410CB9204638BD90F82F3120
:106A68000546C3F18904A2420DD8144605F1A500D4
:106A78002246184401F0ACFB95F82F3120462344F8
:106A880085F82F3138BD01224260EFE72DE9F04F3C
:106A9800D0F814A01524017E8146437E83B00AEB0A
:106AA8000111384A0AEB0313374F097A93F8283053
:106AB80002EB01150901E86852F8018002EB0311A5
:106AC800D5F804B01B01CE68D558CBF80040C8F8FB
:106AD8008400D8F804304A6803432C490192C8F866
:106AE80004301460C5F884606B6833436B60284BCE
:106AF8004C683A68A3FB0232920C02EB8202520005
:106B08004B681B1B9A42FBD84FF0090C1F4ADFF851
:106B180080E0D8F80830034202D0AB6833422FD166
:106B2800C5F8886054683968AEFB0131890C01EBFF
:106B3800810153681B1B9942FBD8C5F884605468CF
:106B48003968AEFB0131890C01EB810153681B1BCD
:106B58009942FBD8BCF1010CDBD1604699F818309A
:106B6800019A0AEB0313DB68CBF8003099F8193067
:106B78000AEB031ADAF82C30136003B0BDE8F08F83
:106B88000120EBE7780F0020D81C0020001000E05F
:106B980083DE1B430E4A10B51168046905E0DB016A
:106BA80007D413685B1A102B08D8636913F0007FA9
:106BB800F5D14FF4FE430120636110BDFFF766FF76
:106BC8000028FAD04FF4FE4301206361F5E700BFC7
:106BD800443800202DE9F04790F82FA10569BAF153
:106BE800000F4FD081468846FFF7D4FF002849D0D0
:106BF800374E0024376818E06B69190551D4DA0458
:106C080055D4580559D4990441D43268D21B322A34
:106C18003DD8544507D9EA6D520704D19B0555D490
:106C2800B8F1000F52D002F097FE5445E4D8EA6D4F
:106C3800500702F00703DFD413E099F8A5200133C9
